:106000000080002075A1000071A1000071A10000B6
:106010006791000071A1000071A1000071A1000052
:1060200071A1000071A1000071A1000071A1000028
:1060300071A1000071A1000071A1000071A1000018
:1060400071A1000071A1000071A1000071A1000008
:1060500071A1000071A1000071A1000071A10000F8
:1060600071A1000071A1000071A1000071A10000E8
:1060700071A1000071A1000071A1000071A10000D8
:1060800071A1000071A1000071A1000071A10000C8
:1060900071A1000071A1000071A1000071A10000B8
:1060A00071A1000071A1000071A1000071A10000A8
:1060B00071A100008DE9000071A1000015F400003D
:1060C000C5F30000C1F3000031EB000011F4000043
:1060D000C9F30000E9F30000CDF3000069F400000B
:1060E000EDD6000051D7000051F4000071A100006E
:1060F00071A1000071A1000071A1000071A1000058
:1061000071A1000071A1000071A1000071A1000047
:1061100071A1000071A1000071A1000071A1000037
:1061200071A1000071A1000071A1000071A1000027
:1061300071A1000071A1000071A1000071A1000017
:1061400010B5054C237833B9044B13B1044800E073
:1061500000BF0123237010BD1801002000000000C3
:106160009044010008B5034B1BB10349034800E00C
:1061700000BF08BD000000001C0100209044010089
:10618000154B002B08BF134B9D46A3F5803A002109
:106190008B460F461348144A121A09F0C4FF0F4BDE
:1061A000002B00D098470E4B002B00D098470020C2
:1061B000002104000D000D48002802D00C4800E02A
:1061C00000BF09F081FF2000290003F035F909F034
:1061D00067FF00BF000008000080002000000000F2
:1061E0000000000018010020601C002000000000DA
:1061F0000000000037B50446684680E80600251D0B
:1062000003C885E805002373069B2361BDF81C3095
:10621000A38200232360084B1A6812B91C6004E0B3
:106220000A4611680029FBD114609888013080B2B9
:10623000988003B030BD00BF3807002007B5037950
:10624000054A0193036806CA009308300223FFF74A
:10625000D1FF03B05DF804FB8804010070B5282568
:106260002B68ADF50C7DB3F5C04F05D34FF4017429
:1062700020460DF50C7D70BD1B6B002BF6D05B6AC4
:106280004FF40B7201A90020984704460028EFD173
:1062900040F201262B68B3F5C04FE7D21B6BB3F574
:1062A000C04FE3D29B6A002101A89847B042F1D0C9
:1062B00040F20323984218BF0446D9E730B541F2B3
:1062C00068024FF400340F4B9C5041F671321C6F42
:1062D00003F52033C4F3033404FB0000DD690A4CEA
:1062E000DA639A68A04205F4803522F4401203D99B
:1062F000012918BF42F480129A600DB10022DA63BE
:1063000030BD00BF00800040005A62020D4BD3F840
:10631000403103F00303022B0BD0032B0BD0012BD6
:106320000DD109234FF4004200B1026001B10B709E
:1063300070470823F6E70A234FF47A72F4E7002344
:106340001A46F1E7008000400D4BD3F8203103F0EE
:106350000303022B0AD0032B0BD0012B0CD10523F6
:10636000084A00B1026001B10B7070470323064A6E
:10637000F7E70223054AF4E700231A46F1E700BFD6
:1063800000800040C0EA210100F04902002D3101E7
:106390000D4B10B4D3F820320A4603F00303012B4F
:1063A0000AD0022B0CD008B1002303600AB10023ED
:1063B00013705DF8044B70475DF8044BFFF7C4BFE2
:1063C0005DF8044BFFF7A2BF00800040114BD3F8EB
:1063D000243103F00703013B052B18D8DFE803F055
:1063E000030C11140A0F05230B4A00B1026001B11E
:1063F0000B7070470623F7E70323084AF5E70423E9
:10640000FBE70223064AF0E707230022EDE700231B
:106410001A46EAE700800040C0EA210100F0490284
:10642000002D3101094B0022996C30B5DC6C2346FC
:1064300042EA0104220C82701A0A210AC2701A0C64
:106440001B0E047041700271437130BD0080E00F7B
:10645000202A0B681EBF4FF0FF3191408B43590833
:1064600001F055315B1A03F033319B0803F03333ED
:106470000B44017803EB13130A444FF0013103F08E
:106480000F334B43A2EB13630370704773B50026C1
:10649000044602AD05F8016D011D1B222846FFF7D9
:1064A000D7FF60689DF80730B3EBD06F03D120F0C1
:1064B000784002B070BD28461B2204F108018DF817
:1064C0000760FFF7C5FFA0689DF80730B3EBD06FFA
:1064D00001D1C043EBE74FF0FF30EAE74BF29A22DD
:1064E000036810B5B2EB134F044611D19BB2012BD8
:1064F0000ED1FFF7CBFF431C0AD04FF6FF72E068C6
:10650000030C93420AD180B2C01A18BF012010BDFB
:10651000236801330CBF03200420F8E70220F6E7CC
:1065200037B5054601F10C04436901A90122204653
:106530009847BDF8043002A941F8083D0122AB6933
:106540002046984703B030BD2DE9F043054689B099
:106550009946036908460E461746984704460028A0
:1065600067D1D9F804304FEA53285FEA580804F19C
:10657000010366D199F8032099F802301203DB0277
:1065800003F4006302F480521A43B9F80030640344
:10659000C3F30A03134404F460441C442B4B6FEA16
:1065A0000444039327F07843FF431B2202A901A868
:1065B00002938DF80480FFF74BFF9DF80420029BA7
:1065C00008A843EAC26300F81D8D1B2201A927F029
:1065D000784704930197FFF73BFF9DF80320019B49
:1065E0006FEA144443EAC26305934FF0FF3308A9EE
:1065F00041F8044D06930122AB6906F1100098475B
:10660000AB690446012205A906F108009847AB6969
:10661000002818BF0446012204A9301D9847AB6921
:10662000002818BF0446012203A93046984750B9F4
:106630001CB131462846FFF773FF204609B0BDE87C
:10664000F0831C4691E70446F3E700BF01009AB2CD
:10665000036803F07F03012B03D8406820F07C40DF
:106660007047072B8CBFD81F0020704741F268038A
:106670004FF400311E4A70B5D15041F671331D4CB4
:106680000122E669E36341F20C03E25002236061F8
:10669000054623610021212006F4803609F004FE1E
:1066A00018B90146212009F0FFFD42F20C03012236
:1066B000E2500EB10023E363431C02D018B10E4830
:1066C00000E00E4870BD0E4B9B680A3303F01F02BA
:1066D0000123934023F003032B44AB4201D100205C
:1066E000F0E755F8042B0132F7D00648EAE700BF7F
:1066F000008000400000034024E000F021E000F0B2
:106700000080E00F0EE000F07047000041F67132AB
:10671000074B0121DA6342F20C02995000224FF438
:106720000031DA6342F26803024AD150704700BF79
:10673000000003400080004041F268034FF4003144
:10674000054A0020D15041F67132044B0121DA6331
:1067500042F20C0299507047008000400000034054
:106760002DE9F0418646406800283BD0DEF80070F5
:10677000904600243E4657F834500134C5F3130CBC
:10678000013501D0614532D0844206F10806F2D1CC
:106790003868013031D0002507F1080606E057F8C7
:1067A00035203046013206F1080627D00135A542D2
:1067B000F5D1032B16D0DEF800703868C0F307500F
:1067C000032823D0002407F1080608E057F8340016
:1067D000B446C0F30750032806F1080617D0013469
:1067E000A542F3D101238EF80830BDE8F08141EADB
:1067F0000351C6E90018BDE8F0813846C1F3130122
:1068000041EA0353C0E90038BDE8F081BC46C1F35A
:10681000130141EA0353CCE90038BDE8F0810023BD
:106820004FF0FF3230B544689C4202D1002303721E
:1068300030BD016801EBC30541F833206A600133C4
:10684000F2E70000EFF3108272B6034B1A600368A0
:106850000846DB68184700BFD40D002070B500253E
:10686000044686B00562E369AB4202D8206A06B0EE
:1068700070BD666C2068E36B05225B6901A906FBAD
:106880000500984701A8FFF729FE012898BF236A51
:1068900005F101059CBF01332362E4E7F7B5074624
:1068A0000E460D467B6C86EA05045B421C40A5EB58
:1068B000060001D003B0F0BDFB6B01225B6901A9AA
:1068C00028469847019B013301D10435EAE7204669
:1068D000F0E7F0B5002504462E4687B0E369B342E1
:1068E00002D8284607B0F0BD2368676C052207FB75
:1068F0000637E36B01A95B693846984701A8FFF7A3
:10690000EDFD012809D807F114012046FFF7C6FF65
:10691000636C143B834208BF01350136DEE7F0B5F6
:10692000046806460C1B416C0025B4FBF1F487B0EB
:10693000F36930685A1E9542776C06D3716C3068E3
:1069400001FB0400143007B0F0BD0134B4FBF3F1D7
:1069500003FB1144F36B05225B6901A907FB0400EB
:10696000984701A8FFF7BAFD0128E7D90135DFE70D
:106970002DE9F04F144607460E469946C36B89B081
:106980005B69012205A96068DDF848809847FB6BC8
:1069900001225B6904A930469847059B5A1C06D121
:1069A0000020A360A075607509B0BDE8F08F0121DB
:1069B0004FF0000EA175217E049A04EBC101CE6157
:1069C000A1F820E0606802F07F05B042C2F3D31C5A
:1069D000E9B20CD14FF0FF33C4F800C02175A360B9
:1069E000237D043B022B20D80020A075DCE7206823
:1069F00003F07F036045207D18BF84F816E08842CD
:106A00001CBF0020A075012B8CBF00200120012994
:106A10008CBF0021012188421CBF0021A175012DDE
:106A200000F2D280012BDBD9D1E002F07F02012AF3
:106A30000FD8FB6B02225B6906A93046984706A86F
:106A4000FFF706FE237D032B69D8DFE803F06363BD
:106A5000040904A8F4E7CC21227E04EBC2021184CD
:106A6000684AD35C049D88F8003005F07F02012A53
:106A700088BF0025237E98BFC5F3C16504EBC3031F
:106A8000012A83F82250B3F820A000F2A380FB6B08
:106A900002225B6906A93046984700230DF1200BBE
:106AA0000BF8113D202206A95846FFF7D1FC1A2207
:106AB00007A9FFF7CDFC9DF80F30079AB3EB926F53
:106AC0000CBF0123002308226375637D03B9A375FE
:106AD000A37D9BB1BAF1000F15D07B6CB018594261
:106AE00086EA000C1CEA010F1CBF0021A175591E8B
:106AF00001405B1A9A4584BF0023A37594F816B031
:106B0000BBF1000F30D095B9E37D002B75D14FF06C
:106B1000000B16E0227E04EBC2021084A0E7227E66
:106B2000062B04EBC20210849AD901239AE70123B1
:106B300094F819B0E375BBF1000F24D19D4228D120
:106B400065762AF00300304410441AF0030F7B6C82
:106B500018BF04305B4286EA0002134203D031467C
:106B60003846FFF7DCFEA060A27D12B123695344D2
:106B70002361237E012B0ED801332376B9F1000F58
:106B80000CD1A07D10E7012D37D0032D08BFA376CF
:106B9000BDE79B46D5E70023A375F2E7002AF0D0B6
:106BA000E37D002BEDD0BBF1000FEAD1032DE8D03F
:106BB000A1684B1CE5D0CDF8008001232246384661
:106BC000FFF7D6FEA075DCE7012B3FF609AF0023E7
:106BD000A37505E700231B2204A906A88DF8183029
:106BE000FFF736FC9DF81830049AB3EBD26F0CBF58
:106BF000012300230422637567E7A27D4FF0010B98
:106C0000B4E700BFEA02010013B50C46002100936F
:106C10002176134661682246FFF7AAFE18B1E37D8C
:106C200003B1A07EA075A07D02B010BDF0B50546F1
:106C3000002687B0EC69013CB44203D80C462046DC
:106C400007B0F0BD01B14C1E6F6C2868EB6B0522DC
:106C50005B6901A907FB0400984701A8FFF73EFC08
:106C60000128ECD901362146E4E7F0B504460D468B
:106C7000466CE36B006887B05B69052201A906FBDF
:106C80000500984701A8FFF729FC012804D801A8AE
:106C9000FFF7FCFB07B0F0BD29462046FFF7C6FF13
:106CA0000646676C2068E36B05225B6901A907FB58
:106CB0000600984701A8FFF7E9FB431CEAD0B5425C
:106CC00038BF0130E6E74369416CDA1D1439B2FB85
:106CD000F1F28069013203EBC202043000EB4200A2
:106CE000DA1CB2FBF1F203EBC2030333B3FBF1F3A3
:106CF000023301FB03007047214BD3F8F821024017
:106D00001CD1F0B4D3F8FC5103F5FC74641BA4103F
:106D1000022CD3F8006212D0032C29D0012C1AD0F7
:106D2000184C05F10C026468C5E90040C3F8FC2169
:106D3000A96033680C333360F0BC7047704704229D
:106D4000104C6468686098182C601960C3F8FC01E6
:106D50003260F0BC70471A4608240A4F7F682F60E3
:106D600042F8080B5960C3F8FC213460F0BC70474E
:106D7000044C6468A960C5E90040C3F8FC31E7E74A
:106D8000A8150020001000E0837DDB0701D5808A74
:106D90007047D0E901239B1A44BF828A9B1898B29E
:106DA00070470000044B5A6D22B95865A3F858107B
:106DB0000120704700207047D80600200A20D0B577
:106DC0000B4CE38C584308F0CFFE0646A08C0F46D0
:106DD00008F0CAFE0022074B08F030FF02460B46BF
:106DE0003046394609F054F809F03AF92083D0BD0D
:106DF000D80600200000F43F40F2E243074A10B5F5
:106E00001468584303FB0141536800F5807001EB9F
:106E1000500118441160506010BD00BFD80600201A
:106E20000022134670B58AB0D910415C03F0070404
:106E30002141CC0742BF0AA9891801F8283C03F177
:106E4000010348BF0132252BEED100230D4DD9108F
:106E5000415C03F007042141C90707D5E91881F80F
:106E60002A300133252BF2D10AB070BD93FBF2F129
:106E700002FB11310AAE314411F8286CEC1884F889
:106E80002A60EEE7D8060020024BD86880B2800264
:106E9000704700BF0080E00F0C4B10B50C4CE41A9B
:106EA0000C4B1C4424F4FF5424F01F04FFF7ECFFA8
:106EB000A04202D80024204610BD2046FFF70EFB5A
:106EC0000128F8D904F50054F0E700BF10000020B5
:106ED00014010020DB6401007FB502466D460D4BB6
:106EE00003F110062C4618685968083303C4B342EE
:106EF0002546F7D1531E04A90F3211F8014D13F89E
:106F0000010F844204D19342F7D1012004B070BD37
:106F10000020FBE7B802010070B5154D286810BBD2
:106F2000144B154CE41A154B1C4424F4FF5424F064
:106F30001F04FFF7A9FF844214D2666BA6B1FFF7C6
:106F4000A3FF864210D2FFF79FFF06F14003834262
:106F50000AD83046FFF7C0FF30B1F36933F00803B9
:106F600002D02C60286870BD04F50054E1E700BF32
:106F7000980100201000002014010020DB640100B3
:106F8000BFF34F8F0549064BCA6802F4E062134312
:106F9000CB60BFF34F8F00BFFDE700BF00ED00E007
:106FA0000400FA0528231B68B3F5C04F05D21B6BFC
:106FB000B3F5C04F01D2DB6B184740F201107047A8
:106FC00028231B68B3F5C04F05D21B6BB3F5C04F28
:106FD00001D29B6B184740F20110704728231B68B1
:106FE000B3F5C04F03D21968064A914203D000237B
:106FF000037083607047012202709A689B69426047
:10700000F7E700BF07B0CD5E10B50C4630B90448B5
:10701000FFF7E4FF034B23600423A380002010BD8F
:10702000F4010020F801002010B508B3114B1A68D4
:10703000918881421CD399880024814281BF01211B
:10704000126899809A6099889A682AB904B19A60FE
:107050004FF6FF71998009E0884204D0013112682F
:1070600089B20124F1E70CB198809A60104610BDF6
:107070000022FBE74007002037B50D461446FFF716
:10708000D3FFD8B10369828A63B14FF6FE718A4299
:1070900008D1002069460090ADF80400984738B147
:1070A00003B030BD2B602280286848B92080F7E704
:1070B000009B2B60BDF804302380F5E70120EFE74B
:1070C0000020EDE737B50D461446FFF7ADFF70B170
:1070D000036973B14FF6FE72818A914209D100951E
:1070E000ADF8044069460120984703B030BD012047
:1070F000FBE70E20F9E7000037B504460379124A92
:107100000333019300F14403009306CA02231430B1
:10711000FFF770F8228A237A0192E26804F12C00CA
:10712000009294E80600FFF765F80546237AA4F874
:10713000450084F844302279216804F1470008F0C2
:10714000E7FF284603B030BD8004010070B50E4C47
:107150000E4B04F1100206460D4692E8030083E848
:1071600003001846FFF76AF80222094B18341A7216
:1071700094E80300DE6083E803001D821846BDE842
:107180007040FFF7B9BF00BFB802010040150020F2
:107190002005002010B5044644EA010313F0030360
:1071A000084609D1934201D1002010BD54F82310A4
:1071B00040F823100133F5E79200214608F0A8FFBC
:1071C000F2E72DE9F041054616468846FFF7DCFD5B
:1071D000AB8A181A80B2864228BF064637465FB986
:1071E0003EB1D5E901329A4202BFAB7D43F00103C3
:1071F000AB753046BDE8F081AB8A2C68A8681C44AA
:10720000241AA3B2BB428CBF3C46A4B222464146DC
:1072100008F07EFFAB682968AA8A23440A44A04488
:107220009342A7EB0404AB60A7B228BFA960D6E7DE
:1072300070B5044615461E4611B3FFF7A5FDA38A97
:10724000181A80B2012829D9E37D63B1E368628A04
:107250001A70120A07D02068A18A013301448B42B8
:1072600028BF0346F4E700236382A3680222E36099
:1072700004F112012046FFF7A4FFE37D0133E3751B
:10728000324629462046FFF79CFF638A0344638207
:10729000E37D13B9238A0344238270BD0020FCE7F9
:1072A0002DE9F041164605468846FFF76DFD8642FA
:1072B00028BF0646B6B237464FB92EB1AB7DDA07C6
:1072C00044BF23F00103AB753046BDE8F081AB8AC3
:1072D0002C6869681C44641AA3B2BB428CBF3C464C
:1072E000A4B22246404608F013FF6B682968AA8AB8
:1072F00023440A44A0449342A7EB04046B60A7B262
:1073000028BF6960D8E770B51E46038A0446154653
:10731000EBB9C27DDAB10123013A0B70C27500F1FD
:1073200010010222FFF7BCFFE37D9BB1228A2946B0
:10733000B24228BF32462046FFF7B2FF238A1B1A0B
:107340002382E37D13B9638A1B1A638270BD002315
:107350000B70EBE7638A2382E8E7000070B50D4607
:10736000A8B9FFF7D9FD446BFFF7D6FD58B1234606
:10737000084C03F14006224618685968083303C2D6
:10738000B3421446F7D1044B2B600423AB8000209A
:1073900070BD00BF9C010020BC01002038B5202238
:1073A00004460D460C30002108F0BDFE00234FF0CE
:1073B000FF32A375C4E90025A260E3756376A37666
:1073C000237638BD2DE9F04F0E4600258BB00446DC
:1073D0004FF0FF311046C6F3130917469A468DF851
:1073E0001350FFF7DBFF4E456BD12B46E1688B4214
:1073F0000DD0A26802EBC30052F83320551C0DD00B
:10740000C2F31302914509D141684D1C08D1237C78
:10741000002B58D147480BB0BDE8F08F0133E6E7A9
:107420003846FFF7BBFF0DF1130301223946204612
:10743000FFF7EAFB0028EAD09DF813308AF8003005
:107440000020E8E72368ED1A636CB5FBF3F542E032
:107450004046FFF7A3FF0DF11303029A4146204671
:10746000FFF7D2FB8646D8B1B11C03D0D8F8003064
:10747000B34215D19DF813302F4A8AF800303B46AD
:1074800002F1280B9446BCE80300DC451860596003
:10749000624603F10803F5D1F346DCF800001860FA
:1074A000D8F8081032E0BBF1000FB3D04E45C7D179
:1074B0009AF800307A68314604F10800FFF750F975
:1074C000BEE7B31CA3D1E56A681CBBD1616A204644
:1074D000FFF7ACFB0546B31C18BF0123DFF858804B
:1074E0000293636A626C0393236805A902FB053B60
:1074F000E36B05225B695846984705A8FEF7EEFF47
:107500000BF1140319464FF0000B01934A1C05D0F0
:10751000636C019A5B424A40134299D02946204647
:10752000FFF784FB039BAB42BDD0BBF1000FBDD185
:107530000546D6E70BE000F0F00E00202DE9F04FF5
:107540004FF0FF33002589464FF6FF71044600F1E6
:10755000080687B0C0E90913C362056205633046B7
:10756000FFF75DF92046FFF779F900285BD14FF668
:10757000FF7BD4F824800027D84514BF454600255A
:10758000E3699F4252D32046FFF768F9002833D1C0
:10759000B34D2046FFF79DF923E12368E26B606C51
:1075A000576901A9052200FB0530B84701A8FEF77D
:1075B00095FF0128074603D0C31EDBB2012B12D86A
:1075C00029462046FFF751FB0246012F2168676CD0
:1075D00008BF0132434607FB0511E06BFEF7B4FF1D
:1075E0002046FFF73BF90135E3699D42D5D320469C
:1075F000FFF734F90028BAD000254FF0FF384FF6D6
:10760000FF73C1462F46C4E90853E3699F423ED346
:10761000A5EB0805012D5DD84FF6FF72636A934212
:107620006DD1904DB5E704F14008DDE7636CE26B86
:107630002068D2F814C001A9052203FB0500E04729
:1076400001A8FEF74BFF02280FD0D84515D109F14C
:107650000102606C216804F1400300FB0511E06B3E
:10766000FEF772FF2046FFF7F9F8E3690135B5FB35
:10767000F3F2013703FB125582E729462046FFF754
:10768000F4FAB0F1FF3F08BF4846421CE1E7636CE3
:10769000E26B2068D2F814C001A9052203FB0700A1
:1076A000E04701A8FEF71AFF824601A8FEF7EEFEAA
:1076B000BAF1010F0CD8484538BF6762804528BF32
:1076C0008046854238BF05468146236A01332362DE
:1076D00001379AE74FF6FF7300256362E3699D4225
:1076E0009AD2676C2068E36B05225B6901A907FBEE
:1076F0000500984701A8FEF7C9FE0135EEE7E26BE9
:10770000676C2068556901A9052207FB0300A8479B
:1077100001A8FEF7BBFE616C2268636A524D01FB53
:1077200003231433A3624FF0FF332A46E3626FF062
:1077300001010DF103032046FFF744FE002854D158
:10774000AB68E362E56A20462946FFF7A7F82063A5
:1077500020B9E16A2046FFF7E2F8E06229462046B8
:10776000FFF7DDF80546A36A9D4240D16369656C69
:107770002046A5F11402DD1CB5FBF2F503EBC505AF
:107780000335B5FBF2F5FFF7A4F8AB1C9842814630
:107790003FD2616A2046FFF749FA01268046033549
:1077A00004F1400A731E994512D82368676C0522BC
:1077B00007FB0837E36B01A95B693846984701A8C6
:1077C000FEF764FE534602463946E06BFEF7BCFE08
:1077D00041462046FFF72AFA0136B5428046E1D1FC
:1077E000224D284607B0BDE8F08FA36AA9E72946D5
:1077F0002046FFF753F8236B2946034407462363CB
:107800002046FFF78CF80546002FACD1C4E90B07E2
:10781000A9E73046FFF703F8154DA16AE36A9942DC
:1078200001D04B1C01D10025B3E62846FFF7B6FD79
:107830000DF10303012229462046FFF7E5F930B197
:10784000D5E900129DF803303046FEF789FFA9689C
:107850004A1CE3D169682046FFF761F80146DDE77D
:1078600003E000F016E000F0C40E002013E000F08A
:107870001C0F00202DE9F04F41F268038A464FF4B7
:1078800000314FEA820B354A354C85B00190D1501A
:10789000E369012203F48033029341F67133E36319
:1078A00041F20C030746D1465E46E2500EB930461F
:1078B0002FE007F5005525F4FF5525F01F056761FA
:1078C000ED1BE269B54228BF3546520735D4D9F8D9
:1078D000001009F10402A161A5F10408B8F1000F3C
:1078E0000ED1042241462261212008F0DDFC80B93E
:1078F000212008F0D9FC60B92F44A944761BD5E7B4
:1079000008210846039208F0CFFC039A78B10423BB
:10791000236142F20C020121114B9950029A0AB1E3
:107920000022DA63431C0BD070B10E4809E052F814
:10793000041BA8F10408A161D0E74FF0FF30E8E78D
:10794000094805B0BDE8F08F5A465146019808F045
:10795000FBFB0028054808BF0020F2E7008000403C
:107960000000034024E000F021E000F010E000F00F
:107970002DE9F04385B088466946044681E80C004D
:107980000C9EBDF83470FFF74FFB4FF6FE790546AD
:107990000DB1444505D94FF6FF74204605B0BDE84A
:1079A000F0832B7A9DF804209A421ED100996868D2
:1079B00008F0CAFBC8B9002EEFD02B69AA8AA3B180
:1079C0004A4509D10290ADF80C0002A9984760B968
:1079D000029BBDF80C2043B1974206D13A461946A6
:1079E000304608F0B1FB0028D7D001342D68A4B28E
:1079F000CEE70000F0B5354C87B011464FF48670E5
:107A00001F461646FFF778F9236925462BB94FF430
:107A10008370FFF771F907B0F0BD002F08BF082E83
:107A200021D101AA0321206802F08CFF6368606104
:107A30005B7A04F1180123769DF804300220DA1FE6
:107A400053425341627E63F30002039B6276E3611B
:107A5000BDF806306383236998470122002120681E
:107A600002F078FFD7E7002F08BFB6F5000F03D16B
:107A7000002101209847CEE7002306F4A0421343DB
:107A800009D04FF480714FF48170FFF735F9236905
:107A900000210320EEE7002306F4A062134308D080
:107AA00001214FF48170FFF727F92B690021FF2096
:107AB000E0E7002306F02052134319BF012140F2F2
:107AC000011031464FF48370EDE700BF50130020E2
:107AD0001FB502238DF80630064B5A8B59690332C5
:107AE000ADF8042018686A4602F030FF009805B02F
:107AF0005DF804FB5013002008B500214FF4857099
:107B0000FFF7FAF80022044B03211A6118680122DA
:107B1000BDE8084002F0D8BB5013002013B50D4B50
:107B200001281B880C4CADF80430ADF8003002BFC2
:107B300002238DF80430042301A9206808BF8DF8C2
:107B4000003002F05FFE6946206802F073FE02B06A
:107B500010BD00BFD80201005013002037B500222D
:107B6000114C437A00926060D0E90021206802F055
:107B70005DFF238CDB050CD563680C4D1A7A2978E0
:107B8000914206D0012A06D0022A08D063681B7AE7
:107B90002B7003B030BD206802F01EFFF6E72068AE
:107BA00002F020FFF2E700BF50130020350700204D
:107BB000F0B51A4C85B0637A18480133DBB2272B35
:107BC00088BF25236372FFF7C9FFE768657C627D84
:107BD000134C14494FF400730232206802F091FEF6
:107BE0006368114A5B7A05F001052846D65CFFF709
:107BF00095FF0022012300928DF80C30314602AB34
:107C00002068029702F064FB28B1FFF775FFFFF7C9
:107C1000CFFF05B0F0BD054B2361FAE7340100202A
:107C2000501300204801002055040100B9870000CE
:107C300038B50D4611462C680144A41A224608F0B6
:107C400092FA2C6038BD00002DE9F0470C464849F7
:107C5000484B0D689246471B4748484A1B1A4848FC
:107C60001760034423F4FF5323F01F039F42884609
:107C7000914676D355443D44FFF70EF908B9FFF716
:107C800003F9854270D8D8F800000AEB0005B5F575
:107C9000806F03D982223B4B1A7060E03A4E524605
:107CA0002146304408F034FA384BC8F800501A68BE
:107CB0001AB9332D53D9726B1A601B687C199F4215
:107CC0001DD8A3421BD203F11002A24247D8DB1BEE
:107CD0001E4433462E4A06F1100153F8040B8B4222
:107CE00042F8040BF9D12A48FFF7F6F810B9254BF2
:107CF0008422D1E71022FF21304608F014FA254EE5
:107D000005F0030524483368641B044053B9384028
:107D1000C0F500512144FFF745F9346040B1194BDB
:107D20008522B9E79C4203D9E11A03F50050F2E736
:107D3000D8F800201449521BD9F80000FFF740F989
:107D40000446D8F80020D9F80030521B13440849E3
:107D50000D48C9F80030FFF76BFF002CDFD1BDE8FC
:107D6000F087084B872297E7064B832294E700BFF2
:107D7000481300201401002010000020800B002078
:107D8000DB6401007D0B0020480F00200C0E00205A
:107D9000FC0D00204C13002000E0FFFFEFF31080EB
:107DA00072B6704741F264034FF48031064AD150F5
:107DB000064B5B69C3F38512827003F03F021B0B15
:107DC00042700370704700BF0080004000C0074051
:107DD00013B5044601A8FFF7E5FF9DF80630012220
:107DE00023804FF4807300206380054B9B680A3327
:107DF00003F01F0302FA03F3636002B010BD00BF7B
:107E00000080E00FF0B54AB1012530241D4E8D40B1
:107E100004FB00640BB341F21006A5513024444327
:107E2000072904F1804404F5703419D80F276568D8
:107E30008E00B74025EA070502FA06F6354365606D
:107E400052B9012202FA01F130220E4C02FB00402D
:107E5000A3B141F21003C150F0BD42F21006DCE7BD
:107E60000F2701F18045083DE668AD00AF4026EAE6
:107E7000070602FA05F53543E560E1E742F2100333
:107E8000E9E700BF00C00340EFF3108072B670470F
:107E900000B962B67047000010B5034CA01DFEF794
:107EA000BFFF0023236010BDDC0D002010B5094C7E
:107EB000B4F80710A079FEF79FFFA368B4F80D107F
:107EC000054AC3F30F239384D184FEF777FF002381
:107ED000236010BDDC0D0020D8060020034B044AAF
:107EE0009979117500221A60704700BFDC0D0020DF
:107EF000D8060020FFF7CCBF08B5C368002098471C
:107F0000024B1868BDE80840FFF7C2BFD40D00203F
:107F10002DE9F04FB94F87B03B780646894601926C
:107F200003F0FF0B002B37D1FEF7B6FF8246FEF7BA
:107F3000ABFFBAF1000F00F00C81B14BA0F500557A
:107F4000D3F80080C3F800B0AE4BA5EB0A0593F858
:107F500034101C4600297BD01A68924540F0F98005
:107F60005A68954240F0F5809968A74A914240F0DE
:107F7000F080DA68062A40F0EC8040F26C725969B1
:107F8000914240F0E680D96BA04A914240F0E180F6
:107F9000C3F818B001233B709A4C94F83430002B8E
:107FA00000F0D7809A4D012104F13C0046F480286E
:107FB000FEF748FC04AB2A4641462046FFF702FA8A
:107FC0000746002840F0CC809DF81030032B00F0CD
:107FD000C780022B00F0C7802E69E06BFFF78CFF93
:107FE000002F40F0B680019B1B78B342C0F0B180F7
:107FF00094F834300093002B00F0AB8001218548C9
:10800000FEF720FC0DF10B03814A41467D48FFF746
:10801000D9F9074680B99DF80B30012B40F0048157
:108020002B69B34240F00681B346D5F804A0E36B58
:10803000BBF1000F40F09980E06BFFF75DFF002F70
:1080400040F08780019B1E70009807B0BDE8F08F5C
:10805000402203F11000D3F838B008F064F840F281
:108060006C736361684B04F10800A3600623E3604E
:10807000C4F838B0C4E900A5FEF7D1FB634B04F1A6
:108080004000E363FFF7A4FE002867D1626C002A7A
:1080900064D06368B3FBF2F3E36194F84330002BE0
:1080A00057D0656C002D54D0E369002B51D0226865
:1080B000B2FBF5F305FB1323002B4AD1D4F804A03F
:1080C000BAFBF5F305FB13A3002B42D14D48FEF795
:1080D000FAFD82453DD340F634726369CC3B93424E
:1080E00037D8B5F5007F34D303214A48FEF7AAFB01
:1080F000D4E90001E36B1B6898470546E36B022057
:10810000DB689847D5B941463E48FFF717FA424B1E
:108110000546984204D141463A48FFF70FFA054612
:1081200065B9636C3748A3F11408236A03FB08F8A8
:10813000FEF7C9FD394B804538BF1D46B5FA85F3BA
:10814000E06B5B0984F83430FFF7D6FE002D3FF476
:1081500021AF0023019A0093137075E700239BE77A
:1081600000262F4F39E7042637E75B69012203A970
:10817000504698472649039B0968C3F3D31291429E
:1081800050D103F07F03012B2BD903A8FEF760FA2F
:108190004FF00408584528BF58468208D044054689
:1081A000ABEB000B0AD0E36B49465B69404698474E
:1081B00025F00303984405F0030599445DB1E36B92
:1081C00001225B6904A94046984748462A4604A90B
:1081D00007F09EFFA94451460A48FEF7A0FB8246DD
:1081E00025E7E36B02225B6904A95046984704A87F
:1081F000FEF72EFA4FF00808CCE700BF400E002033
:1082000014040020480E0020100E00203804010045
:10821000980E0020840E002013E000F002E000F031
:108220000BE000F0044F07E7044F054A022B08BF9C
:10823000174601E7034FFFE622E000F00BE000F0F5
:108240000CE000F011E000F02DE9F04106460D468B
:1082500014460C4F0CB9BDE8F081EFF3108872B6EC
:1082600023462A4631463846FEF7E2FF034640469B
:10827000FFF70EFE002BEDD0E41AA4B21D44002639
:10828000E8E700BFB80C0020002313B501F1080493
:1082900021461A46ADF80430ADF80600083151F811
:1082A000100C70B90BB1ADF80420042201200DEBC5
:1082B00002010834FFF7C8FF54F8101C39B902B0A6
:1082C00010BD51F80C3C1A4492B20123E6E734F891
:1082D0000C2C0020EDE700007FB500230130CDE934
:1082E0000433064BCDE90101694604200093039253
:1082F000FFF7CAFF07B05DF804FB00BFE2010020F2
:108300002822136810B5B3F5C04F0ED2EFF31080DA
:1083100072B6002407490B780C70FFF7B9FD3BB12A
:10832000BDE8104013681B6A18474FF4817010BDF8
:108330001846FCE7D80D002001282DE9F34740F04E
:108340003E818B88012B40F03C810B681B7813BB6E
:108350009E4A9F4C13609F4A13609F4A13609F4A36
:1083600013609F4A13609F4A13709F4A13609F4A8D
:1083700013602278022A01D1FFF7C2FF0123237084
:1083800000249B4B1C709B4B1C709B4B1C7020460D
:1083900002B0BDE8F087032B40F0FE80964BDFF87B
:1083A00030921C78002C4ED199F80030002B00F050
:1083B000E7808C4B1B78082B40F08380834B186838
:1083C000984668B928252B68B3F5C04F62D34FF49F
:1083D000017041F20804A0420CBF8624802432E0E0
:1083E00010F003060EBF2646C6F10406F6B200EBF7
:1083F000060ABAF5806F00F2C980804B3246FF2131
:108400001844794F07F08FFE7D4A3B6812680AEBEB
:1084100003019142C8F800A000F2BC806D4A1568C3
:108420001D445544DFF8B8A125F4FF55DAF80000E3
:1084300025F01F0585420CD9291A00F50050FEF7DA
:10844000B1FD20B18524002389F800309FE7CAF8E8
:10845000005028231B68B3F5C04F18D21B6BB3F52F
:10846000C04F14D21D69654AD8F800303968002021
:10847000A84705463B68D8F80020544913449E1B82
:108480005E483E60FFF7D4FB002D9BD0DAE74FF447
:108490008175EFE7FDF7E2FE00289AD12B68019085
:1084A000B3F5C04FCED21B6BB3F5C04FCAD29B6998
:1084B000012101A898470028C4D101224D4B1A7010
:1084C000C1E7002B5ED04A4B1B78002B5CD0474E97
:1084D000336843B9414B10224A491868FEF770FDD2
:1084E0000028B0D0AEE713F003021CBFC2F10402B3
:1084F000D2B29F18B7F5806F48D84348FF2118447F
:1085000007F011FE414A424B37609B1A414A13441F
:10851000314A23F4FF53156823F01F03AB42904602
:1085200036D82F44FEF7B8FC08B9FEF7ADFC8742F9
:1085300030D833682A4F1D4425F4FF55386825F09C
:108540001F05854208D9291A00F50050FEF72AFDBB
:1085500000287FF477AF3D6032682B49D8F80000DF
:10856000FEF72EFD0546D8F8003032681F49134447
:108570002548C8F80030FFF75BFB002DAAD061E763
:10858000812460E784245EE780245CE782245AE744
:10859000872458E7832456E7042B14D113230221A0
:1085A0001D4C637020462170FEF7FCFB1B4A1C4BE0
:1085B000128905329A801B4A1A6062789A710024E7
:1085C000E5E60D24E3E60624E1E600BF780B002093
:1085D0007E0B0020A0150020800B00200C0E002038
:1085E0004C130020DC010020840B002048130020E5
:1085F0007C0B0020E90100207D0B00207807002083
:10860000A4150020FC0D0020480F002010000020C1
:1086100014010020DB640100F00D0020D8060020CA
:10862000DC0D0020B58C000028231A6810B5B2F5C7
:10863000C04F0ED2EFF3108072B60124074A1178B2
:108640001470FFF725FC39B9BDE810401B68DB69E1
:1086500018474FF4817010BD0020FCE7D80D0020B2
:108660000B4A08B5937E4FF0005443F040039376D5
:108670000022084B1A70084B1B782BB1FFF7D4FF70
:10868000064B2360FEF77CFC2360FEF779FC00BFFD
:10869000D806002034070020E901002002020FF074
:1086A00010B5134CA37E5B0621D4FFF725FA40F2E8
:1086B000E24225202168A38C02FB031294F84F109C
:1086C0002260A27A0A4492FBF0F100FB11220A21F7
:1086D000A272228901322281626801FB0323636056
:1086E000238B5A1E228313B90820FFF7B9FF10BD50
:1086F000D80600202DE9FF41294C40F601002189D0
:10870000FEF7FAFAA37E13F0400242D143F00103D0
:1087100003F0FD0362F38203224AA376136823B1B8
:1087200021899288914200D19847A37A1E4F234411
:1087300093F82A301D486375FFF710FAD4E9005406
:108740007B6864085B7A1A4A2E1B012012F80380AA
:108750006435FFF7E3F900960026254401246A46B4
:1087600041463346386802958DF804608DF80C60F8
:108770008DF80D408DF80E6001F0D4FD05462246BF
:108780003146386802F0E6F835B1FFF789FFFFF7A8
:10879000B1FF04B0BDE8F081064B3B61F9E700BFD3
:1087A000D8060020DC0D002050130020E406002035
:1087B000550401001D89000002282DE9F0411FD059
:1087C00002D8012807D0FEE7032800F09C80FF288C
:1087D00000F09980F7E74D4C637C980707D5FFF7C9
:1087E0008BF9FFF7E5F9637C6FF341036374637CF6
:1087F000990701D4DA0764D4BDE8F041FFF7D8B98E
:108800004B784C68DB077ED5227802F00F07032FE8
:1088100059D0052F77D13E4904F108008B7B03F036
:108820000103B3EBD21F4CD10622083107F08CFCB8
:108830008046002845D1FFF75FF9FFF749F9354D2C
:10884000414606465C22284607F06DFCAB7E2F832E
:1088500043F02003AB76627E237E012743EA0223A6
:10886000AB84627F237F04F11E0043EA0223EB8482
:1088700094F82330C3F3040385F84F3094F8233081
:10888000C3F3421385F850301B232B85FEF7C8FA3B
:10889000D4F80E30E27CEB60A37C2E6043EA022326
:1088A000227D2F7543EA02432B6195F84F30607D9E
:1088B000AB72E18A3944FEF79FFAFFF71BFF164BB4
:1088C0001F70BDE8F081124D04F10800AB7B03F08E
:1088D0000103B3EBD21FF4D1062205F1080107F022
:1088E00033FC0028EDD1094C4FF4007394F83D207F
:1088F00004F13C010232286802F003F8637C43F083
:1089000002036374DDE7FFF7F7F875E73401002031
:1089100050130020D80600203407002002282DE93B
:10892000F7430F460BD003D8012800F0B281FEE7D1
:10893000032800F0B681FF2800F0B381F7E74878FC
:108940004E6810F00104BA4D61D14FF0FF3140F68E
:108950000300FEF7D1F92646AB7EB64C13F0200F8C
:1089600012D0696D6FF34513AB76002900F09F803C
:10897000237895F8582043F0030323706270A01CFD
:1089800007F0C6FB00236B65AB48FEF7FDF900302E
:1089900018BF0120AA7E237860F34102C2F30011C0
:1089A000AA7661F38203C2F3C00262F3C30360F3E9
:1089B00004132370218840F60200FEF79DF96278C7
:1089C000DFF8988202324FF400739A49D2B2D8F895
:1089D000000001F096FFAB7E7C68D90709D56FF3E4
:1089E0000003AB7600236B60FFF772F82860FEF798
:1089F000E5F94EB1237803F00303022B00F0318137
:108A00006DD8012B00F02C8103B0BDE8F0833188D4
:108A100040F60300FEF770F93378A97EC3F3001324
:108A200096F8008063F38201A976C8F3C003C1F30E
:108A300000118B4206D108F00303022B05D019D890
:108A4000012B31D00026344615E0A146767896B148
:108A50007A48848AFEF798F9201A80B2B9F1000F9B
:108A600004D0022892BF0020023880B286428CBF18
:108A7000002401242646AB7EC8F38008C3F3C0025D
:108A8000904507D082F0010262F3C303DBB243F0EA
:108A90002003AB76002C3FF45FAFAB7E81F0010189
:108AA00061F30413AB7657E74FF00009CEE795F872
:108AB0002830A21C0DF107015F48FEF724FCC0B26C
:108AC00058B19DF80730002B0CBF012202222378F9
:108AD000607062F30103237056E70122F7E7A37881
:108AE000022B65D011D8002B4DD0012B38D0544A21
:108AF000127822B1162B7FD0182B00F08C80072221
:108B0000504802210270437027E00C2B18D0142B20
:108B100056D0082BEBD1B8F8201054F8035FC8B238
:108B200005EA0002474801F47F4142EA0105044694
:108B30000921002304F8011BC0F8015063600CE018
:108B400040484FF0FF3203700123827043700222CD
:108B5000037100230621C2704371FEF723F953E726
:108B6000617A237A384A43EA0123938013463749CE
:108B700043F8061B54F8031FC2F80610A2889A8017
:108B8000A2799A7140E7627B237B2F4943EA022353
:108B90008B800B462E4A43F8062B54F8032FC1F85E
:108BA000062062685A6022891A81A27A9A722BE79B
:108BB0002A89254B05329A80264A1A60E278E0E736
:108BC000B4F80530B4F80320DB08934228BF1346FD
:108BD0002B8515231B4800216FF004046FF027023A
:108BE00003700723817081714470C27003714471F6
:108BF000C27103720921B0E72279E378114813406A
:108C000003F00303022B18BF0123172243700270E5
:108C100083700321A1E76279A1790B4B42EA01221B
:108C20009A800D4A1A60D4F80320C3F80620EBE6B8
:108C3000D8060020AC170020B80C0020A00B0020A4
:108C4000D00D0020F00D0020DC0D0020997E0000EA
:108C5000AD7E0000B58C0000DD7E000050130020CA
:108C600000261248A51C818AFEF78EF8081A64783F
:108C700080B226B1022892BF0020023880B2A3B28F
:108C800083423FF6C1AE2A4631460848FEF7D0FA85
:108C9000BAE6074B9B7E9A073FF5B6AE5B073FF5FA
:108CA000B3AEFFF7FDFCFFF725FDADE6A00B0020FE
:108CB000D806002008B5024B9879FFF7D1FC00BF19
:108CC000DC0D00202DE9F04F012891B040F00E821C
:108CD0008A88002A00F00C82A94B93F800A09846DD
:108CE000BAF1000F00F00682A64B1C781E465CB954
:108CF000A548057802903DB9A44D28681718B7F526
:108D0000806F05D982241C70204611B0BDE8F08F19
:108D1000DFF894920968484407F0FAF9BAF1020FB3
:108D20002F6034D0032FEFD9994F3846FEF756F90C
:108D30003B78D9F80020012B3FD17B68190E01291F
:108D400003D1C3F307430A2B44D9924B9A4237D13C
:108D5000BB68DA033CD5022388F80030FFF764FCD7
:108D600028231B68B3F5C04F07D21B6BB3F5C04F68
:108D700003D29B6809A900209847874B099A1A607B
:108D8000864B0A9A1A6098F80030022BBCD1844AAC
:108D900013789046082B40F0C08082482B68016809
:108DA0007E4F03F0030A5A183F68A2EB0A02BA4248
:108DB000814611D983243470A6E7764B9A4207D0B6
:108DC000842333703378002B9ED033701C469BE78E
:108DD0008623F6E78823F8E76F4ADFF8D8B11768EB
:108DE000DBF800001F440F44A7EB0A0727F4FF57E6
:108DF00027F01F07874209D9391A00F50050FEF7FE
:108E0000D1F808B18524D6E7CBF8007028231B6879
:108E1000B3F5C04F7ED21A6BB2F5C04F7AD22B6831
:108E20001769A3EB0A03604AD9F800100020B8477D
:108E300007462A68D9F80030A2EB0A0213445349C6
:108E40005948C9F80030FEF7F3FE002FDAD198F840
:108E50000030002B7FF458AF2B687F2B7FF654AF88
:108E6000524FDFF854B13868E8B928231B68B3F5CE
:108E7000C04F13D20123CDE90A0009A88DF8243090
:108E8000FEF7ACF80A9BC3F307421B0E74D0012B0C
:108E90006DD10A2A6BD86FD14FF40370CBF8000064
:108EA00007F04AF938604FF02809D9F800303868DF
:108EB000B3F5C04FDBF80010A4D29B6A9847002896
:108EC000A0D1D9F80030B3F5C04F21D201232A68D0
:108ED000CDE9070006A88DF81830D7F800A0039256
:108EE000FEF77CF8079B190E12D00129039A03D1D3
:108EF000C3F307430A2B0BD9282305A91B6800914C
:108F0000D3F83490284909AB5046C847002855D0BB
:108F1000842450E74FF481778BE7002B97D02149C9
:108F20002B680A681A440A60204A106828221268CE
:108F3000B2F5C04F11D2D76A1D491B4AB847074640
:108F40002A6812491848FEF773FE40F203239F4235
:108F500006D10123029A1370D6E640F20227EFE70A
:108F600040F201239F423FF472AF802423E728237D
:108F70001B689B6B984791E74FF4C0708EE700BF6A
:108F80007E0B00207D0B00207C0B0020780B002046
:108F900000020020EB17A603A0150020A415002056
:108FA000DC010020840B002078070020980B0020B3
:108FB000880B00204C1300209C0B00209DF82430CF
:108FC00088F800300393FDF7A7FF039B8146002834
:108FD0004DD0D0F834A0002B3FF496AE002306937A
:108FE000042310AA02F82D3D06A93520FEF790FFB4
:108FF000069BDB074DD598F80030082B39D0534637
:10900000BAF1000F36D1B9F1000F45D14FF0280960
:10901000394BDFF8FC803868C8F80430D9F80030E4
:10902000DBF80010B3F5C04FBFF4ECAE9B6A984775
:1090300000287FF4E7AED9F800203868B2F5C04FB9
:109040002B6850D2D76A41462C4AB84707462A684F
:109050002B492A48FEF7ECFD40F203239F423FF4E0
:1090600078AF40F201239F427FF47FAF4CE6824607
:10907000B1E7244B10220CA903F12800039307F059
:1090800063F820B9039B0A9A1B6A9A4201D8892483
:1090900091E6B9F1000F12D04FF400514846FDF7A8
:1090A00081FF00287FF4AEAE2AF4FF504FF4005148
:1090B00020F01F00FDF776FF00287FF4A3AE98F89C
:1090C0000030082BA2D1104B104A18684FF4005101
:1090D00020F4FF5323F01F031360FDF763FF002804
:1090E0007FF490AE10E640F20227B0E700240BE6D2
:1090F0000D2409E6812407E6497C0000780700205A
:10910000780B002068030100A01500204C130020FC
:10911000880B00200048704700F049020048704763
:10912000C0EA2101430910B507D0012B0FD00A4C2A
:109130000A4A022B14BF2346134600F01F0041B118
:1091400003F58053012202FA00F0186010BD044BB1
:10915000F3E703F50053F5E76082004068800040C4
:1091600064800040FEE708B5FDF70AFF084B1B6F5F
:1091700003F00703022B04D0032B06D0012B02D0EF
:10918000FEE704487047044870470448704700BF32
:1091900000800040C0EA2101002D310100F04902A9
:1091A00038B504461B4A1368D806FCD44FF0402358
:1091B000D3F88430C3F381139C4229D0FFF7D6FF44
:1091C000012C054602D12146FDF778F8EFF3108017
:1091D00072B64FF00071104A4FF0402311604FF407
:1091E0008062611E8A401A675A6E910103D4D3F8D7
:1091F0008420920609D5FEF74BFE022C08D12846A2
:10920000BDE838400021FDF759B8D3F88420EBE7DA
:1092100038BD00BF844000406460004008B5FFF7DF
:10922000A5FF044B1B6FC3F303330133B0FBF3F013
:1092300008BD00BF0080004008B5114B0246D3F8BE
:10924000003203F00703013B032B16D8DFE803F0DD
:10925000020A0C1009234FF4004002B1106001B162
:109260000B7008BD0823F6E70A234FF47A70F4E781
:10927000FFF7D4FF0C23800AEFE700231846ECE742
:1092800000800040002307B5B0F5807F8DF80330E3
:1092900011D03BD82D2800F0938012D82A284CD02A
:1092A00007D8243803283CD99DF8030003B05DF8A3
:1092B00004FB2C28F8D10DF103010020FDF726F85E
:1092C000F2E73E2851D012D8382800F081803D289E
:1092D000EAD1444BD3F8603103F00303022B7DD075
:1092E000032B7DD0012B0CBF0923002356E052280D
:1092F00017D08028D8D13B4B1B6F03F00703013BED
:10930000032BD1D8DFE803F04F494D62B0F5C06FB1
:10931000D1D020D8B0F5906F4CD008D8B0F5806F80
:10932000C2D10DF103010020FDF70EF8BCE7B0F546
:10933000A06F4DD0B0F5B06FB6D10021294B01918F
:10934000D3F8803103F00303012B2ED0022B0CBF86
:1093500002230B4622E0B0F5F06FBAD009D8B0F581
:10936000D06F2DD0B0F5E06F9ED11E4BD3F84032B8
:10937000B2E7B0F5006F1DD0B0F5086F94D1194B6E
:10938000D3F8003103F00303022B27D0032B1DD0A9
:10939000012B0CBF0323012300E005238DF80330CC
:1093A00082E70323FAE70223F8E701A8FCF7CCFFE2
:1093B0000D23F3E70DF103010020FDF707F873E734
:1093C0000DF103010020FFF737FF6DE70723E5E705
:1093D0000DF103010020FCF7DBFF65E70823DDE763
:1093E0000A23DBE70080004007B50021B0F5807F4D
:1093F00001910ED0B0F5C07F08D0802802D1FFF7D0
:10940000B5FE0190019803B05DF804FBFFF706FF7D
:10941000F7E701A8FCF77AFFF4E70000044B054AE0
:109420009A60D3F8882042F47002C3F8882070470D
:1094300000ED00E0006000004FF040232DE980487F
:10944000D3F89430ABB05F061BD44FF0005300222A
:1094500022A81A60FDF7C2FDFDF75EFDC0B1446BA6
:10946000FFF7E2F8249B5E0740F12C84FDF754FDE2
:1094700028231B68B3F5C04FC0F05084FEF740FFAF
:1094800006E04FF000531A68022ADED100221A606B
:10949000BFF34F8FBFF36F8FB24AB348536AB34CD9
:1094A00023F480335362B24B84425A6822F00102A3
:1094B0005A6008BF4FF08042196B1CBF20F01F029A
:1094C000203A21F0FF0141F0A001B2F1005F1963E1
:1094D00009D3A84DA84E296842F0010299600131D4
:1094E000DE601A61296084420CD0A248A34A016858
:1094F00022F01F0242F003029960DA60A04A0131B3
:109500001A610160BFF34F8FBFF36F8F05225A605E
:10951000944A536A43F480335362BFF34F8FBFF3CF
:109520006F8F984B1B68C3F30743012B10D1964BE9
:109530004FF48022596E41F264004D034FF0040451
:1095400058BF42F264011A509048046058BF5A5004
:10955000012041F264064FF0004C41F204054AF646
:10956000CD344FF040224FF0070E894B864F47F81D
:1095700006C05851596C1C64C2F83CE09A6801401E
:1095800022F0740242F044029A6040F209121A6119
:1095900040F203125A6147F806C058515A6C1C64D5
:1095A0009C680240E40705D542F208041851D86AC5
:1095B000C007FCD542F2040001241C500AB1754AD0
:1095C0001A6411B1724B734A1A648020FFF75AFE75
:1095D000032847D041F264034FF400216A4AD15076
:1095E00045F60E026C4B0221C3F8802041F228029E
:1095F000995042F22802012199509A6DD703FCD468
:10960000664A1A619969664A01F000410A439A6103
:109610001A6A644922F00D021A629A6A22F0330231
:1096200042F001029A625C4A1346906D31EA0000F2
:10963000FBD1022141F22800115011659A6D5600AC
:10964000FCD41A694FF0004122F4700242F4001277
:109650001A6141F21802995042F2280202219950EF
:109660000121995041F264034FF40022464C01213C
:10967000E25041F22802484B02209D6A9950FFF7C0
:109680008FFD00214848FCF719FE236F4FF480320C
:1096900043F48063236741F27003E250236F05F0C7
:1096A000020523F0070343F003032367FFF7B6FD2A
:1096B0003E4B196811F01001FBD14FF04023D3F855
:1096C0008430314CC3F38113C3F10203002BC8BFB4
:1096D0000121FCF7F3FDFFF749FD0220FFF760FDD4
:1096E0004FF4C070FFF780FE314A236F904294BF61
:1096F0000020012023F4806343EA80232367802035
:10970000FFF772FE2B4B98429EBF42F270034FF45C
:109710008032E25025B942F2280301211E4AD1507D
:1097200001213020FFF7FEFC1023174A224C9366DC
:109730000123C2F880326360124B04251B6C2AAAF5
:109740002366002302F88C5D09A935200993FEF7F2
:10975000DFFB06238DF81B30099B8DF81A5013F49C
:10976000803F2BE000ED00E0B80000200C0100205D
:1097700090ED00E03C150020030000202B010020AC
:10978000E1FFFF3F0080E00F00800040202001400B
:10979000004009403254FFFF00C000402008B00BD9
:1097A0003C8C8C030300014000B4C404844000409E
:1097B00080F0FA02005A620200C001A8DFF8FC83C0
:1097C0000BAD00F0B482236E8DF82C30236E8DF833
:1097D0002D30236E8DF82E30236E8DF82F30236EB2
:1097E0008DF83030236E63F03F038DF831309DF8F3
:1097F000323043F001038DF83230C8F804500025B0
:109800004FF48071C24BC34A5961C3E900229A6088
:109810001D82C14AC14B22AFC3E900229A6059613F
:109820001822294638461D8206F07DFC09238DF852
:10983000893080238DF88B30B94B4FF00109239389
:1098400010238DF89330B74B384625938DF89090C0
:1098500000F0A6FCB448B54B29460360B44BB54EA6
:10986000436000F017FDA8A3D3E900233060CDE9E1
:1098700000234FF0FF334FF0FF3200F0DFFF0222F2
:109880004FF0FF31306800F0E6FFAB4BAB4C22935A
:10989000394603F5003330682495239300F0B2FD78
:1098A00021463068257001F001F828B12146306862
:1098B00084F8009000F0FAFF306801F089F8217810
:1098C000B8F90020306800F07BFC0146306800F0F9
:1098D000D7FFD8F80440DFF8E8A2002C40F041821E
:1098E0005046FCF79FFDB37B64F30003B373102273
:1098F000934B944C83F82123002183F8222304F115
:109900000A0083F8262383F8252383F8232383F88A
:10991000202383F824235A2206F005FC42F2107318
:10992000894DE360894B4FF49072C4E900532523BD
:10993000637201233284864A4FF0000913701B22A0
:10994000844DDFF880822A802AAA02F8903D0DF12A
:1099500019013E202372C8F80090FEF7D9FA58B1D9
:109960009DF8193039463068CDF88890C7F80490D2
:109970008DF88A3000F06CFF11232AAA02F8913D7D
:1099800015A93620FEF7C4FA20232AAA02F8923D30
:1099900039463920FEF7BCFA80BB6F4B9DF8172083
:1099A00018681B7922903B71002A00F0E3811B2A82
:1099B00028BF1B22531D8DF8163015A9531C0DF11D
:1099C0008D008DF88B3006F0A3FB1AA8FCF72AFD5A
:1099D000624A9DF8163012882AA9FA529A1C51FA46
:1099E00082F200211A9802F8201CBDF86C1009338D
:1099F00042F81F0C22F81B1C8DF8163020232AAACF
:109A000002F8933D1AA93A20FEF782FA48B9544B5E
:109A10001A889B78ADF868208DF86A3003238DF89A
:109A2000153000224FF002094E4B4F48C3E9002287
:109A30004E4B80F804900360FCF700FC4C484D4B03
:109A400080F80490036010230372FDF755FB4A4829
:109A50004A4B80F804900360494B80F80890C3603B
:109A6000A0F81090CDE900394B4690E8060014307C
:109A7000FCF7C0FB9DF81710002900F0898115A89C
:109A80004FF01009FDF762FB3E483F4B80F8049011
:109A90000360FCF7D3FB3D483D4B4FF6FE7B036074
:109AA00008233C4AA0F810B0C26080F8049003720A
:109AB0000393FDF721FB3848384AA0F810B0026044
:109AC0000C224FF0020B0272354A80F80490C260FB
:109AD000FDF712FB3348344A039B0260334A80F897
:109AE0000490C260038280F808B0FDF705FB30489F
:109AF000304B80F8049003602F4B80F808B0C360AF
:109B000062E000BFAFF3008008558028000000002D
:109B1000B80C0020D00C0020B80B0020A00B0020B7
:109B200014030100F202010080130020F579000007
:109B300074130020501300203C00940012000020F9
:109B400000E100E034010020D6BE898E5555550055
:109B5000D00D0020DE010020A8030100B2030100A7
:109B6000DA0201003807002060150020B50301006B
:109B700078050020B80301004C070020BB0301005A
:109B8000DE02010080150020BE030100D005002088
:109B9000CF0301003983000028060020E003010004
:109BA000C58C000070040020F10301006003010077
:109BB000800600200204010054040100EC01002092
:109BC000581300201004002001230382FDF794FAAB
:109BD000B648B74B80F804900360B64B80F808B0E5
:109BE000C3604FF6FE730382FDF786FAB248B34BAB
:109BF00080F804900360B24B80F808B0C3604FF661
:109C0000FE730382FDF778FAAE4BAF4A1A604FF647
:109C1000FF729A809DF81620202A05D8931D63753F
:109C20003946AA4806F074FA9DF81520202A06D86D
:109C3000931D84F83D301AA9A54806F069FAFDF78E
:109C40005BFF227C637C002A40F0A58043F0010387
:109C50006374237D62F30303B27B02F0010262F3BB
:109C600086132375637D0BB906236375BAF8041058
:109C7000984BB068C4F816009980042194F83C30E1
:109C800061F3030362F3861384F83C3094F83D30AB
:109C900013B9062384F83D30B068BAF804208E4B1F
:109CA000C4F83E009A80FDF783FF8C4C8C4B1B78E8
:109CB000002B40F0B0808B4A136923F0040313613A
:109CC00030BFF3E7002C3FF4D9ABFDF7DDF8844259
:109CD000BFF4D4ABFDF7D8F804F1400383423FF65C
:109CE000CDAB2046FDF7F8F800283FF4C7AB636919
:109CF00073B9FEF705FBFDF70FF90446FDF70CF904
:109D0000784B986023689D4663689847FFF7C0BB0F
:109D10009DF88830012BECD1FFF7A8BB5B6A984710
:109D20000446FEF7EDFA002C3FF4B2ABE3E70DF189
:109D30001B0229462C20FEF7EBF800283FF45FAD0C
:109D40000DF11A0208A93C20FEF7E2F89DF8323026
:109D500020B19DF8202062F300034CE560F300037E
:109D600049E52068B060A288A379AAF804208AF89F
:109D70000630BCE508238DF8163004238DF88B30AF
:109D8000594B1A889B78ADF88D208DF88F301CE6E2
:109D90000321554874E66FF3000359E7EFF310868B
:109DA00072B600230DF11D011A465048FDF7ABFABB
:109DB0003046FEF76DF89DF81D3013B10023C8F84A
:109DC0000030D8F80020EFF3108672B6C2F50173A8
:109DD0009BB222440DF11D014448FDF794FA03465D
:109DE0003046FEF755F8D8F8000018440328C8F8A4
:109DF000000010D9B4F8009009F1040398420AD386
:109E000006D86088002704280BD0062800F09E8121
:109E10000023C8F800303548FCF7B6FF0028BDD154
:109E200049E7227909F1FF33082A6F809BB200F0DD
:109E300004811BD8042A2E4E5ED0062A73D0022A33
:109E40001BD1022B40F07E81B4F805700022B7F5DB
:109E5000007F28BF4FF400770323114602203370A0
:109E6000A6F80170FEF738FA2F80D1E7102A00F02B
:109E7000198104D80A2A00F095800622B8E0122A37
:109E800000F0BF80522AF8D1B4F80500FDF7CCF8F5
:109E90000028BDD0037B5B07BAD5A9F1030292B2BB
:109EA0001449B4F80500FDF70DF9B1E7C804002026
:109EB00013040100097000001804002024040100AC
:109EC0005D7300004007002038070020500100208B
:109ED000780100204A010020720100200C020020BD
:109EE0003407002000ED00E0AE030100A00B0020CD
:109EF000E201002013020020042B79D1B4F8057090
:109F0000B8B2FDF791F858B1027A4168022A0CBF45
:109F100001230223052073703070778003205FE0F7
:109F20006F800A2264E04FF00203DFF83CB2A9F12F
:109F30000702B4F80500B4F8071092B28DF8483063
:109F40000BF102030093CDF844B0019211AB0CCB9E
:109F5000FDF70EFD4FF6FF7A5045814604D1636848
:109F6000C3F30F236B80DCE74FF00203CDE90077EA
:109F70008DF83830CDF834B001300DAB0CCB5146F4
:109F800080B2FDF7F5FC072350451CBF00F1FF3000
:109F900080B23370A6F80190A6F8030000220420D6
:109FA00011461DE0022B40F0CD80B4F80500FDF70E
:109FB0003BF800283DD0037B990714D52B882AAAAB
:109FC000013B22F8803D11A9B4F80500FDF754F8D3
:109FD000024648B90B21624BBDF82820197011992F
:109FE000FEF77AF914E702226368C3F30F236B804C
:109FF00001265B4B207969881E70587059801A7150
:10A00000CCE7B4F80500FDF70FF890B1037B1A0711
:10A0100011D5A9F1030292B25249B4F80500FDF737
:10A0200051F802460028DFD113214D4B197001462B
:10A03000D6E70122D8E70322D6E7A9F1050B1FFADC
:10A040008BFBBBF1020F02D0BBF1100F7CD1464B52
:10A05000B4F80500B4F8071011930023CDE90033DC
:10A060008DF848B011AB0CCBFDF782FC4FF6FF73B7
:10A07000984206463FF473AF2B882AAA043B22F885
:10A080008A3D0AA9FCF7F8FF024608B16E80AFE7E7
:10A090000921334BBDF81E201970911C59705E8048
:10A0A0000A993BE7A9F1050B1FFA8BFBBBF1020FE5
:10A0B00002D0BBF1100F47D10027B4F80500B4F867
:10A0C0000710DFF8A4A0CDE900775FFA8BFBCDF88D
:10A0D00044A08DF848B011AB0CCBFDF749FC4FF60E
:10A0E000FF79484506463FF43AAFCDE90077CDF811
:10A0F0003CA08DF840B001300FAB0CCB494680B28C
:10A10000FDF736FC07462B8848452AAAA3F106032B
:10A1100018BF00F1FF3722F88A3D0AA9304618BF60
:10A12000BFB2FCF7A9FF02460028AFD111210C4BAA
:10A13000BDF81E201970111D59705E809F800A990C
:10A1400005204DE7042253E7024651E7074B11A9CA
:10A1500011930223CDE913771293FEF795F857E692
:10A16000E201002013020020150200201000002050
:10A17000FEE7000008B5FFF751F9064A064B07490C
:10A180008B4201D3FBF7FCFF52F8040F43F8040B9A
:10A19000F6E700BF984401001000002014010020E1
:10A1A00038B50446054D00F097FB0FCC0FC594E879
:10A1B000030085E80300002038BD00BFAC18002074
:10A1C00047F6FF739A42F0B55ED002295ED8304B55
:10A1D000CE0013F8311098190129857819460DD150
:10A1E000C3785B1B23B1416831F91310914202DC43
:10A1F000E818C0B2F0BD013B1BB2F3E7406800288D
:10A20000F8D0B0F90030934204DBB0F90230934249
:10A21000B8BF13468288FF2A19BFC8242827B0F97F
:10A220000640B0F90870A4EB03040CBF0122002221
:10A2300094FBF7F414448A19567824B2721EA24291
:10A24000A8BF22464FF47A7700EBC201CC88896818
:10A25000013213FB041112B221EAE17101F5FA7126
:10A26000B242B1FBF7F104DA00EBC204A4888C42DD
:10A27000EAD200EBC20232F8040C884228BF08463A
:10A28000A84238BF2846B4E7FF20B3E70020B1E773
:10A29000AC18002070B50E46044678B1084D2B78F6
:10A2A00063B9084B186000F07FF83146204600F093
:10A2B0006BF8031C18BF01232B7070BD0020FCE756
:10A2C000C8180020C41800200846114600F080B8C5
:10A2D0002DE9F843124D04460F46994601216B685B
:10A2E0000020904698470646C4B104F10C004B4646
:10A2F0004246394601F008FC044618B92B68012093
:10A30000984704463EB100F0A7FB00B91CB10021FC
:10A310006B68084698472046BDE8F8832046E6E784
:10A32000240000202DE9F041114D04460F466B68D2
:10A3300001210020904698470646BCB104F10C006C
:10A340004246394600F08BFA044618B92B680120C2
:10A35000984704463EB100F07FFB00B91CB10021D4
:10A360006B68084698472046BDE8F0812046E7E73D
:10A37000240000207047431E012B03D9031F5842BD
:10A38000584170470120704738B504460D460021FA
:10A3900000F074FA2946204601F042FA00280CBF6A
:10A3A0002046002038BD000010B5044600F04CFDEA
:10A3B00044B1054AD4F88830002B08BF1346034A3D
:10A3C000136010BDE36FFFDE75A3000018000020CE
:10A3D00010B50C4600F058FD1CB100F0B3FD01288B
:10A3E000FBD1BDE81040024B00215B6803201847F9
:10A3F0002400002000B10C3000F0DCBD00B10C30B6
:10A4000000F0F0BD0B8810B43BB143F2C822934278
:10A4100028BF1346642B38BF64230B804B883BB1A5
:10A4200043F2C822934228BF1346642B38BF6423EB
:10A430004B808B883BB143F2C822934228BF13461E
:10A44000642B38BF64238B80CB883BB143F2C82296
:10A45000934228BF1346642B38BF642343F2C824B9
:10A460000A89CB804B89A24228BF2246A34228BF3B
:10A4700023460A814B8100B10C305DF8044B01F09A
:10A4800039BA00002DE9F04FDFF894A185B00446F9
:10A4900000911746994601F01BFCBAF8005001F0F4
:10A4A00021FC00287ED15B4E636F326893425ED000
:10A4B00000F048FD012839D1DFF868B1226FDBF8E0
:10A4C0000030606F002B73D0934274D01D68116808
:10A4D00002680DB18D427AD0204601F0F5F80023D4
:10A4E000054601270193D4F884808DF80F90B8F1C8
:10A4F000000F78D000220DF10F0311462046C0470F
:10A500007DB9D4E91C233360019BCBF800200BB943
:10A51000002F42D0009B2046CAF8003000F0A0FE79
:10A52000054687B9284605B0BDE8F08F012000F048
:10A53000ABFC00F007FD0128FBD1374B00215B6825
:10A5400003209847B8E7B5FA85F03321400900F0B9
:10A550001DFA4946204601F0D5F8304BA4F10C0015
:10A56000616F1B689847284605B0BDE8F08F002B47
:10A570009ED0009B9D429BD1B9F1000F0DD067B1D9
:10A580000122D4F884508DF80E20002D38D00022FE
:10A59000204611460DF10E03A8470025284605B0B8
:10A5A000BDE8F08F00231B4E336001F093FB7BE787
:10A5B0001168026890E73168002987D0814285D10F
:10A5C000009BEB1A18BF0123002501938BE731682C
:10A5D00011B10968914201D059687DE70023012734
:10A5E00001931D467FE7617994F8BD304A46994250
:10A5F00028BF1946204600F0CFFD002D91D180E7FD
:10A60000617994F8BD302046994228BF194600F080
:10A61000C3FD87E7D4180020240000201800002084
:10A62000CC180020D01800202DE9F04F074683B049
:10A630000E46FDF7B3FB7B6F814613B13B89B342F6
:10A640004AD03B6F002B55D09C68002C52D0D96863
:10A6500000294FD0D7F884A0BAF1000F52D04FF0A4
:10A660000008A7F10C0B4046454600E09C68C5EB8E
:10A67000C50204EB8204E2890135B24217D8228A6E
:10A68000B24214D3B4F91210B7F9240101938842ED
:10A6900001EAE17217DD97F8B4105846FFF790FD14
:10A6A0007A79804682420ED92046019BD9688D4234
:10A6B000DCD338B901244846FDF7EAFB204603B055
:10A6C000BDE8F08F04460023224619463846D0479D
:10A6D0003E817C6787F8BD80002331461A463846A4
:10A6E000FFF7D0FE04464846FDF7D2FB204603B0F4
:10A6F000BDE8F08F03244846FDF7CAFB204603B0AF
:10A70000BDE8F08FD0465046554647F6FF7BA7F18F
:10A710000C0A0EE097F8B4105046FFF751FD7A7915
:10A7200080468242D4D92046019BD968A94215D9D6
:10A730009C68C5EBC50204EB8204E2890135B24294
:10A74000F4D8228AB242F1D3B4F9121001935945D8
:10A7500001EAE172DED14FF0FF08B9E70028A9D085
:10A760000446B5E7F8B50D1C18BF01250E4607468F
:10A7700000241F21284600F009F9304601F0A4FF0B
:10A780001F21284687F8C040C7E91C6400F0FEF886
:10A790004FF6FF721C20F168E3B28B420BD31546D3
:10A7A00000230A4A29461360094A38461360FFF716
:10A7B0003BFF2846F8BDB56800FB0353DD89954291
:10A7C00002D2002DECD02A460134E5E7D018002053
:10A7D000D4180020008970470A7838B5054610461D
:10A7E000FFF7C9FD60B14C782046FFF7C4FD38B1D2
:10A7F0002243530704D42846BDE8384000F026BC65
:10A80000012038BD00B10C30FFF7E6BF10B504469B
:10A810000878FFF7B0FD58B14A781046FFF7ABFD56
:10A8200030B1042A04D02046BDE8104000F038BC06
:10A83000012010BD00B10C30FFF7E8BF30B4DDE9F6
:10A84000024500B10C30CDE9024530BC00F0A8BA99
:10A85000084601F0EDBB00B10C3000F0A0BB70B5B4
:10A8600004460D461646FFF7DFFE30B9324629464C
:10A870002046BDE8704000F08FBB70BD01F03ABAD1
:10A8800038B5044600200D4601F01CFF4CB1D4F849
:10A8900090304BB9294604F10C00BDE8384000F077
:10A8A0009BBCD4F88430FFDE022038BD38B50446A6
:10A8B00048880D4601F006FF4CB1D4F890304BB9F2
:10A8C000294604F10C00BDE8384000F017BCD4F86C
:10A8D0008430FFDE022038BD01F0F5BE38B50546F4
:10A8E0000C46FDF75BFAA9696B690C4023436B6169
:10A8F000FDF7CEFA00200CB9002138BD4FF480716D
:10A90000FBE700B10C3000F07ABE00B10C3000F073
:10A9100093BE00004FF4007307B502AA22F8023D6F
:10A920000749FFF7F2FFBDF80630B3F5007F05D108
:10A93000022808BF002003B05DF804FB0120FAE7FD
:10A94000D81800200846114600F072BD00B10C3046
:10A9500000F040BE38B5154658B100F10C0411B1F5
:10A96000204600F085FE35B12046BDE8384000F0B5
:10A9700081BE0446F3E738BD024B1960024B1860F4
:10A98000FEE700BF1C0000202000002008B528B909
:10A99000034B1960034B1868FFF7EEFF08BD00BFBB
:10A9A0001C000020C4180020034618B15B7B0C304B
:10A9B00013B108475B78FFDE0220704710B50446EC
:10A9C00001F01EFA2046BDE81040032100F048BA0D
:10A9D00000B10C30FFF7F2BF0149FFF7E5BF00BF40
:10A9E000D9BD00000149FFF7DFBF00BFB1BD0000C6
:10A9F00070B5437806460C46B3B101F0C9FA6168F8
:10AA000002460546304601F029FA206890FAA0F087
:10AA1000000A00F071FBA17A20892A4681F0010129
:10AA200001F080FA002070BD0220FCE71FB500B1E4
:10AA30000C30ADF80C309DF81830CDE9011201A9A9
:10AA40008DF80E30FFF7D4FF05B05DF804FB002051
:10AA50007047002070470000014B1878704700BF16
:10AA6000D81A0020024BD868C0F30360704700BFBB
:10AA7000000002A87047000038B16FF0FF02034BDE
:10AA800010401A60A3F580531860704724E000A8B6
:10AA9000054AC002136A00F4FF2023F4FF23184381
:10AAA00010620020704700BF00C000A8C2690F4BB1
:10AAB00002F06002402A12D0602A04D0202A12D16B
:10AAC0000122DA6107E071B10A68012A0BD94A69EB
:10AAD00042F00102DA618022054B1A61704740F2B0
:10AAE0000112DA61F7E70022DA61F4E7643F00B0AF
:10AAF000000002A801214FF02A43084AD3F8183178
:10AB000091624FF4005102F5005224325B0711604C
:10AB100042BF0422024B1A60704700BF0C0000AA1B
:10AB2000181100AA37B50C46174D39B90A46072146
:10AB300004F0C8FCC5E9004403B030BD072211464B
:10AB400004F0C0FC0722114B02A81A6023790121EE
:10AB50002B70637940F8043D04F014FD019BC2B2F0
:10AB6000D34000F00F0040EA03106870A379084A50
:10AB7000AB70E379EB7023686B6023790133136268
:10AB800004F0BCFCD8E700BF5C3F00B00C6000A83C
:10AB9000004000A870B515460C4601F00B0323EAEF
:10ABA0000201294A2B401160A2F58052136063070D
:10ABB00006460CD503F09CFE4FF4007315F0040F0D
:10ABC00014BF224A224A13600422224B1A60E00674
:10ABD00006D515F0100F14BF00221B221E4B5A651C
:10ABE000210617D52A061ED54FF400121B4B1A60FA
:10ABF000012203F587531A60FDF7D0F80E210546B0
:10AC0000032002F0A3FC40F20122134B2846DA6233
:10AC1000FDF73EF914F0600F03D0B16F3046FFF737
:10AC200045FF002070BD0E4B1B6C5B02F2D44FF44D
:10AC3000001196F890300B4A1160002BEAD00122E7
:10AC4000094B1A60E6E700BF4C6000A8245001A839
:10AC5000246001A8402002A8004000A8205001A8BC
:10AC6000000002A8206001A8005101A800F018030C
:10AC7000182B084B02D100221A627047010702D537
:10AC800001221A627047C206F5D540F201121A621B
:10AC9000704700BF643F00B010B54B780C46354A92
:10ACA000002B3BD1344B1B7813B10621334B196079
:10ACB0000021334BC3F88C104FF0805103F5F03373
:10ACC0004C3319602F4B1B6C5B0208D4C36913F023
:10ACD000800F4FF4001316BF2B4913600B604FF029
:10ACE00060531360A378002B36D140F6FF72274BD8
:10ACF0005A62E378002B32D140F6FF72244B5A623D
:10AD0000602203F17E4303F5A0431A60402203F55D
:10AD1000E73303F5FA731A60002010BD013BDBB284
:10AD2000022B96BF1B49002351F823304FF060518E
:10AD300011604FF08051144A43F400131360104A1D
:10AD4000936F23F0060343F004039367124B1960DB
:10AD50000423C2F88C30C5E7FFF7CCFEC9E76022B8
:10AD60000E4B1A60402203F5D73303F5FA731A60CD
:10AD7000D2E700BF206001A8E01A0020786000A898
:10AD8000004000A8000002A8205001A80C0000AA62
:10AD90004C0000AA900401004C1002A84C6000A8CE
:10ADA0002DE9F34BDDE90ABCD0E93689044689EA8E
:10ADB0000C0188EA0B0000EA020501EA030685EAB5
:10ADC000080086EA090100254FF0000840F2011949
:10ADD000C4E9360122F001000BEA00060CEA030781
:10ADE0001946CDE9005549EA070348EA060203F08F
:10ADF000CBF92378DB0720D5D4E93623002003F4F0
:10AE0000807150EA010318D04FF480312046FFF7DB
:10AE100065FD237865F300032370D4E9362302EA45
:10AE2000000503EA010655EA060306D005492A464D
:10AE300009683346A4F10C008847002002B0BDE841
:10AE4000F08B00BF2C000020034A0368002B08BFD2
:10AE50001346024A1360704775AA00002C000020B8
:10AE600031F00F0009BF044A0120D36823F00F031B
:10AE700004BF1943D1607047643F00B0014B00200C
:10AE800019617047643F00B02DE9F34103284BD8A6
:10AE9000DFE800F046023E42002401262546FCF78A
:10AEA0007DFF074603F070FB804640B1002300227F
:10AEB000CDE9003301200023002103F065F9294684
:10AEC000304603F02DFD22462946304603F09AFD18
:10AED000B8F1000F16D0164B1B6803B10C33154A9E
:10AEE000126C520208D4DB6913F0800F4FF4001388
:10AEF00014BF114A114A136011490868FFF7BCFDDD
:10AF000000230B60384602B0BDE8F041FCF7C0BF3B
:10AF1000012500242E46C2E7012425462646BEE729
:10AF2000002425462646BAE702B0BDE8F08100BFFE
:10AF3000C4180020000002A8205001A8206001A829
:10AF4000001B002008B5FFF78DFD01380B280DD838
:10AF5000DFE800F014140614141414080A08080892
:10AF6000032008BD0420FCE70520FAE7044B5B69D9
:10AF700013F0060F14BF04200120F2E70220F0E7CF
:10AF800000C001A8034B1B6C13F0A00F0CBF0120E5
:10AF900000207047000002A8114603F03FBB30B408
:10AFA000C56985EA02030B406B40C36130BCFFF703
:10AFB000F1BD0000014B186A02F0DABA004001A8A6
:10AFC000836F53B11A68022A07D9586AC0F3072061
:10AFD00030B11B6AB3FBF0F070470C38FFF70ABAC8
:10AFE00070470000014B186A02F0EABA004001A85D
:10AFF000826F62B11368022B09D9536AC3F3072029
:10B0000040B1126ADBB25343B3FBF0F070470C3827
:10B01000FFF7F4B97047000043785A1F012A01D99D
:10B02000082B05D10B782BB1012B05D0022B05D0B5
:10B03000FFF7DEBF0248704702487047024870477A
:10B0400020A1070048E8010040420F0070B5124BF4
:10B050000E784C781D68FCF7A1FE02460F49FFF7F9
:10B0600001FD0B2808D00C2801D0092807D1104673
:10B07000FCF70EFF022070BD0B6CDB03EFD424063F
:10B08000054BADB244EA06442C4310461C60FCF765
:10B09000FFFE0020EFE700BF003F00B0000002A865
:10B0A00070B5134B0C784E781D68FCF777FE02469E
:10B0B0001049FFF7D7FC033804280DD8DFE800F06B
:10B0C000030C030308001046FCF7E2FE022070BDEB
:10B0D000D1F84431002BECD12B0C1B041C43044B46
:10B0E00044EA062410461C60FCF7D2FE0020EEE77E
:10B0F000003F00B0000002A802F0E4BAF8B5044630
:10B100000646086816F8B47FC4F8B4008B88B3808C
:10B110008B8894F8B450C4F83431FF23022DA37106
:10B1200009D1002001F010FB78BB012001F00CFBDD
:10B13000002818BF012584F8B450284601F004FB0C
:10B1400028B3304601F0C4FA054608BB304601F08A
:10B15000F1FA0546E0B9636F5BB194F8B410B942F7
:10B1600007D0B3F91220A4F10C00FFF729F884F8F6
:10B17000BD00204601F02CFB0121A4F8B80004F129
:10B18000880002F017FE2846F8BD0025D3E7012508
:10B19000032384F8B430F6E738B5054690F8B400D8
:10B1A0000C46032813D0FF2913D001F003FBA04263
:10B1B00004D895F8B40001F0FDFA0446AC712046BD
:10B1C00001F010FCA0F1FF035842584138BD0220A5
:10B1D000FCE70120FAE7000038B590F8B4300446E7
:10B1E000032B39D0456F41719DB3D0F88430BBB982
:10B1F00090F8BD308B4219D300222046FFF7CCFFD8
:10B20000054658B9154B1B78012B07D8204601F08D
:10B21000DFFA012104F1880002F0CCFD284638BD98
:10B22000B0F92421B5F912309A42E5DD002294F8F4
:10B23000BD102046FFF7B0FF05460028EED160673D
:10B240002046FFF7C7FA01462046BDE83840FFF721
:10B25000EBB9FF238371E1E70225DFE73A00002025
:10B260002DE93048436A88B0012B6DD00446574918
:10B2700001F050FF0122616F23898D898DF80A202A
:10B280005B1B9BB2D1E9011505FB0311504DA06773
:10B290002D68ADF80830A842019118D058B1036864
:10B2A0004BB103693BB19968D3E90023C4F894100A
:10B2B000C4E9222304E00023C4E92233C4F8943013
:10B2C00001462046FFF7F2FB01999DF80A2003ABE7
:10B2D000204602F089FA002831D13E4AFFF7C2FB2E
:10B2E00001380B28FAD9536913F0060FF6D13A4A00
:10B2F0003A49136CD801FCD40B6CDB07F9D403A9D1
:10B3000001A802F051FC0546C8B9237860F3000398
:10B31000237000F0C3FE626F431E5269DBB21268F5
:10B32000FD2B009202D9931C012B12D902466946CB
:10B33000204600F041FE284608B0BDE830880225CE
:10B34000284608B0BDE830880025284608B0BDE88A
:10B350003088234B01321B6803F1020109D0012917
:10B36000EED908A9024641F8203D204600F024FE0F
:10B37000E6E7012906D908A9024641F8203D204602
:10B3800000F01AFED4E93623002003F4807150EA5D
:10B39000010304D1237843F001032370D0E74FF475
:10B3A00080312046FFF79AFAD4E9362302EA000BEF
:10B3B00003EA010C5BEA0C03C2D00A495A46634611
:10B3C000A4F10C0009688847BAE700BFFC4F00B041
:10B3D000EC1A002000C001A8000002A800C002A8CA
:10B3E000480000202C0000204FF4807104F07CB84D
:10B3F00038B590F8C0400546A4B1FCF7CFFC1F2239
:10B40000094B013C1A601440A3F580531C60D5F829
:10B41000C420064B9A66D5F8C820DA66BDE83840E5
:10B42000FCF736BD38BD00BF246001A8004001A86C
:10B4300037B50DF106020D4601F082F8044688B1D9
:10B4400085B12B7813F0F70F0CD0FCF7A7FC074B56
:10B45000BDF806201C60064B1A806A88054B1A80CE
:10B46000FCF716FD204603B030BD00BFE41A0020F3
:10B47000E81A0020E21A00202DE9F7430646154697
:10B48000084619B9012003B0BDE8F083002AF9D0BD
:10B49000032905D80022114601F052F80028F1D006
:10B4A000038882781C0402F0070100F18D80A1F16D
:10B4B000070C077990F80580C488DCF1000040EBA8
:10B4C0000C000529287294BF0020C2F30010687296
:10B4D000C2F38010287302F08800802839D08828B1
:10B4E0003AD008283BD101206873C2F34012FF2FE5
:10B4F000AA730ABFFE22EF73EA73F269D2065DD423
:10B50000063901295AD8314A063B526D9BB20622B0
:10B5100069462F4800F083FE9DF80070E304A7F110
:10B5200032077FB21ED49DF801004400E0B2D6F885
:10B5300080300BB139469847E872AF726A7BDDF80C
:10B540000210304602F022FD06232860AB71002075
:10B5500099E702206873C8E703206873C5E70020F5
:10B560006873C2E7B36FC4F30B04E40093B11A68C5
:10B57000022A0FD95B6A13F0FF0301D0B4FBF3F486
:10B58000A04517D8C4B1C8EB0828B8FBF4F4E443CD
:10B59000E0B2CCE73046FFF713FD05F10D0181461F
:10B5A0003046FFF739FD0028EAD009FB04F4B4FB6C
:10B5B000F0F4E5E70020BAE72046B8E70020802352
:10B5C00028606B81A8715EE702205CE7004000A85C
:10B5D0004C0000AAF8B5064614469779FFF74CFFD1
:10B5E000054650B9A37943B104F10D01A771304666
:10B5F000FFF712FD214602F097FC2846F8BD0846E9
:10B60000114610F0030210B514D1B3FA83F3192BCD
:10B6100005D0C3F11902D2B2062A28BF062201249E
:10B62000931D9C40A4B2A14228BF214600F08CFD8E
:10B63000204610BD0124FBE7084611F0030110B5B8
:10B6400014D113883F2B11D9B3FA83F3192B05D0EA
:10B65000C3F11901C9B2062928BF062101238C1D97
:10B66000A340138000F08EFD002010BD0120FCE7F8
:10B67000FFF740BA38B54FF02A434FF480640020FA
:10B68000D3F8185103F5045318331C60064B1860A7
:10B6900003F094F94FF40052044B1A606A0544BF5A
:10B6A000A3F658731C6038BDE41A0020702000AA6D
:10B6B000082310B1024A13607047024A13607047B2
:10B6C000401002A8402002A80C4B10B508461446B2
:10B6D0000B49D3F804210A60D3F808214A604FF4DB
:10B6E0004071C3F80411C3F80811012101F0B2FE42
:10B6F0002046012101F0AEFE002010BD004000A850
:10B70000F81A0020344AF8B5D2F80431856FB3F541
:10B71000407F0BBF314B324A1B68C3F381230CBF00
:10B72000C2F8043113702C4A0F46D2F808318189CF
:10B73000B3F5407F0BBF294B294A5B68C3F38123D4
:10B7400014BF5370C2F808314FF6FF739942044694
:10B7500003D0244B1B6803B19847234E3368AB4298
:10B7600034D0224B1B682BB195B3296801B1A9686D
:10B7700020469847A36F13B11A68022A1AD8A4F179
:10B780000C00FEF73BFE02F081FA0725204601F08F
:10B790001FF827B9294604F1880002F00BFB03F0DB
:10B7A000ADFE06200122A46F1149124B34600860DF
:10B7B0001A70F8BD5A6AC2F307200028E3D01B6A4A
:10B7C000D2B202FB03F2B2FBF0F0DCE70125DDE7C9
:10B7D000294620469847CDE7004000A8F81A0020E7
:10B7E000F01A0020F41A0020EC1A0020DC1A0020C5
:10B7F000786000A8E01A002008B558220021064809
:10B8000004F091FC1022FF21044804F08CFCBDE8F8
:10B81000084003F073BE00BF043F00B0483F00B0D3
:10B820002DE9F34188460446002859D003234FF000
:10B83000641280F8C0302C4BC0E92A221B78C0F873
:10B84000B020FF2283734FF6FF738274274A4FF0B4
:10B85000FF37C374A0F82C3113804FF04023C0F899
:10B8600040714774D3F8843000F10C0603F0C00334
:10B87000802B078332D1304602F08EFE3046FFF730
:10B88000BBFF94F90E00FFF703F96022184B04F593
:10B89000A671DA643046FFF7FFF9A26A0546394619
:10B8A0003046FFF77CFB0E230022CDE9003340F247
:10B8B00001131046194602F067FC00F055FF4DB920
:10B8C0002046FFF727F80546B8F1000F02D008B967
:10B8D0002046C047284602B0BDE8F0810225F9E7BE
:10B8E00084F8B400FFDE00BF30000020041B0020FD
:10B8F000004000A8B0F8B8308A88643310B59BB215
:10B90000CC889A4238BF1A46A34238BF23468A8061
:10B91000CB800C88A0F8A0304B88A0F89C40A0F801
:10B92000A4300B89A0F8A220A0F898304B89883069
:10B930004382072102F03EFA002010BD4FF6FF724D
:10B94000B0F82031934211D0094A0A49526E100CC6
:10B95000C2F301120132B3FBF2F30880064A074931
:10B9600007481B04086013600020704703207047DD
:10B97000004001A8041B0020645001A8646001A8D5
:10B980000000FFFFF7B505460E461446FFF7FAFA2A
:10B99000002800F09D804FF40061284603F0A4FDCC
:10B9A00038B14FF4007201214A4B08461A60FEF785
:10B9B0000FFD31462846FEF737FE0646002870D1B7
:10B9C0002B789B0601D4002C44D04FF44062424BAC
:10B9D0001A6014F0020204D1404B41491B789B02CB
:10B9E0000B604FF440613F4B196022B93B4B3E4A1C
:10B9F0005B789B02136002F07BFF4FF4806314F0CE
:10BA0000040F14BF394A3A4A324F136004224023CC
:10BA100014F0400F3A6014BF364A374A204613608C
:10BA2000FFF724F92846FFF7DFFC38B14FF48073A5
:10BA300014F0010F16BF314A3B601360A70602D510
:10BA40002846FFF77BFF003418BF01242B7864F3EE
:10BA500045132B70284600F055F9F8B12846FFF73A
:10BA6000C3FCD8B14FF40031284603F03DFD002857
:10BA70000CBF01230223032201A9214800F0CFFBC0
:10BA80009DF804101F4A01F00703052B9DF80530AF
:10BA900012D1080708D443F480735360002000F0EB
:10BAA00011FE304603B0F0BD59070BD49DF80630A7
:10BAB00043F480735360F1E703F03001202904D18F
:10BAC000DB07F3D54FF48073F4E79DF80630F1E718
:10BAD0000226E6E7402002A8046100A8F01A002030
